{
  "abi": [
    {
      "inputs": [
        {
          "internalType": "string",
          "name": "_neighborhood",
          "type": "string"
        }
      ],
      "stateMutability": "nonpayable",
      "type": "constructor"
    },
    {
      "inputs": [
        {
          "internalType": "bytes32",
          "name": "_messageHash",
          "type": "bytes32"
        }
      ],
      "name": "getEthSignedMessageHash",
      "outputs": [
        {
          "internalType": "bytes32",
          "name": "",
          "type": "bytes32"
        }
      ],
      "stateMutability": "pure",
      "type": "function"
    },
    {
      "inputs": [
        {
          "internalType": "string",
          "name": "physicalAddressHash",
          "type": "string"
        },
        {
          "internalType": "uint256",
          "name": "notsecurenonce",
          "type": "uint256"
        }
      ],
      "name": "getMessageHash",
      "outputs": [
        {
          "internalType": "bytes32",
          "name": "",
          "type": "bytes32"
        }
      ],
      "stateMutability": "pure",
      "type": "function"
    },
    {
      "inputs": [
        {
          "internalType": "string",
          "name": "physicalAddressHash",
          "type": "string"
        },
        {
          "internalType": "address",
          "name": "ethAddress",
          "type": "address"
        }
      ],
      "name": "getNonceForAddress",
      "outputs": [
        {
          "internalType": "uint256",
          "name": "",
          "type": "uint256"
        }
      ],
      "stateMutability": "nonpayable",
      "type": "function"
    },
    {
      "inputs": [
        {
          "internalType": "address",
          "name": "ethAddress",
          "type": "address"
        }
      ],
      "name": "isResident",
      "outputs": [
        {
          "internalType": "bool",
          "name": "",
          "type": "bool"
        }
      ],
      "stateMutability": "view",
      "type": "function"
    },
    {
      "inputs": [],
      "name": "myaddress",
      "outputs": [
        {
          "internalType": "address",
          "name": "",
          "type": "address"
        }
      ],
      "stateMutability": "view",
      "type": "function"
    },
    {
      "inputs": [],
      "name": "neighborhood",
      "outputs": [
        {
          "internalType": "string",
          "name": "",
          "type": "string"
        }
      ],
      "stateMutability": "view",
      "type": "function"
    },
    {
      "inputs": [
        {
          "internalType": "address",
          "name": "",
          "type": "address"
        }
      ],
      "name": "onChainToPhysicalAddresses",
      "outputs": [
        {
          "internalType": "string",
          "name": "",
          "type": "string"
        }
      ],
      "stateMutability": "view",
      "type": "function"
    },
    {
      "inputs": [
        {
          "internalType": "string",
          "name": "",
          "type": "string"
        }
      ],
      "name": "oneTimeUseTokens",
      "outputs": [
        {
          "internalType": "uint256",
          "name": "nonce",
          "type": "uint256"
        },
        {
          "internalType": "address",
          "name": "ethAddress",
          "type": "address"
        }
      ],
      "stateMutability": "view",
      "type": "function"
    },
    {
      "inputs": [
        {
          "internalType": "bytes32",
          "name": "_ethSignedMessageHash",
          "type": "bytes32"
        },
        {
          "internalType": "bytes",
          "name": "_signature",
          "type": "bytes"
        }
      ],
      "name": "recoverSigner",
      "outputs": [
        {
          "internalType": "address",
          "name": "",
          "type": "address"
        }
      ],
      "stateMutability": "pure",
      "type": "function"
    },
    {
      "inputs": [
        {
          "internalType": "string",
          "name": "physicalAddressHash",
          "type": "string"
        },
        {
          "internalType": "uint256",
          "name": "notsecurenonce",
          "type": "uint256"
        },
        {
          "internalType": "bytes",
          "name": "proofOfAddressSignature",
          "type": "bytes"
        }
      ],
      "name": "registerAddress",
      "outputs": [],
      "stateMutability": "nonpayable",
      "type": "function"
    },
    {
      "inputs": [
        {
          "internalType": "bytes",
          "name": "sig",
          "type": "bytes"
        }
      ],
      "name": "splitSignature",
      "outputs": [
        {
          "internalType": "bytes32",
          "name": "r",
          "type": "bytes32"
        },
        {
          "internalType": "bytes32",
          "name": "s",
          "type": "bytes32"
        },
        {
          "internalType": "uint8",
          "name": "v",
          "type": "uint8"
        }
      ],
      "stateMutability": "pure",
      "type": "function"
    },
    {
      "inputs": [
        {
          "internalType": "address",
          "name": "_signer",
          "type": "address"
        },
        {
          "internalType": "string",
          "name": "physicalAddressHash",
          "type": "string"
        },
        {
          "internalType": "uint256",
          "name": "notsecurenonce",
          "type": "uint256"
        },
        {
          "internalType": "bytes",
          "name": "signature",
          "type": "bytes"
        }
      ],
      "name": "verify",
      "outputs": [
        {
          "internalType": "bool",
          "name": "",
          "type": "bool"
        }
      ],
      "stateMutability": "pure",
      "type": "function"
    }
  ],
  "bytecode": "60806040523480156200001157600080fd5b5060405162000db538038062000db583398101604081905262000034916200011f565b80516200004990600090602084019062000063565b5050600180546001600160a01b0319163317905562000238565b8280546200007190620001fb565b90600052602060002090601f016020900481019282620000955760008555620000e0565b82601f10620000b057805160ff1916838001178555620000e0565b82800160010185558215620000e0579182015b82811115620000e0578251825591602001919060010190620000c3565b50620000ee929150620000f2565b5090565b5b80821115620000ee5760008155600101620000f3565b634e487b7160e01b600052604160045260246000fd5b600060208083850312156200013357600080fd5b82516001600160401b03808211156200014b57600080fd5b818501915085601f8301126200016057600080fd5b81518181111562000175576200017562000109565b604051601f8201601f19908116603f01168101908382118183101715620001a057620001a062000109565b816040528281528886848701011115620001b957600080fd5b600093505b82841015620001dd5784840186015181850187015292850192620001be565b82841115620001ef5760008684830101525b98975050505050505050565b600181811c908216806200021057607f821691505b602082108114156200023257634e487b7160e01b600052602260045260246000fd5b50919050565b610b6d80620002486000396000f3fe608060405234801561001057600080fd5b50600436106100b45760003560e01c8063c618745c11610071578063c618745c1461017a578063d4aa6916146101d2578063fa540801146101f3578063fcf814c314610206578063fdece17814610219578063ff81f4b11461022c57600080fd5b806307546f1a146100b95780633a522e80146100e157806368aca335146100f65780637ff915141461010957806397aba7f91461011e578063a7bb580314610149575b600080fd5b6100cc6100c73660046107f9565b61023f565b60405190151581526020015b60405180910390f35b6100e9610284565b6040516100d891906108a7565b6100cc6101043660046108da565b610312565b61011c6101173660046108fc565b610342565b005b61013161012c366004610969565b610463565b6040516001600160a01b0390911681526020016100d8565b61015c6101573660046109b0565b6104e2565b60408051938452602084019290925260ff16908201526060016100d8565b6101b56101883660046109b0565b8051602081830181018051600382529282019190930120915280546001909101546001600160a01b031682565b604080519283526001600160a01b039091166020830152016100d8565b6101e56101e03660046109ed565b610556565b6040519081526020016100d8565b6101e5610201366004610a32565b610589565b600454610131906001600160a01b031681565b6100e96102273660046108da565b6105dc565b6101e561023a366004610a4b565b6105f5565b60008061024c8585610556565b9050600061025982610589565b9050866001600160a01b031661026f8286610463565b6001600160a01b031614979650505050505050565b6000805461029190610a99565b80601f01602080910402602001604051908101604052809291908181526020018280546102bd90610a99565b801561030a5780601f106102df5761010080835404028352916020019161030a565b820191906000526020600020905b8154815290600101906020018083116102ed57829003601f168201915b505050505081565b6001600160a01b0381166000908152600260205260408120805482919061033890610a99565b9050119050919050565b60006003846040516103549190610ad4565b90815260200160405180910390209050806000015483146103bc5760405162461bcd60e51b815260206004820152601d60248201527f4e6f6e636520737570706c69656420646f65736e2774206d617463682e00000060448201526064015b60405180910390fd5b6004546001600160a01b0316331461042f5760405162461bcd60e51b815260206004820152603060248201527f53656e646572206e6f74206173736f636961746564207769746820746865207060448201526f343cb9b4b1b0b61030b2323932b9b99760811b60648201526084016103b3565b61043b3385858561023f565b50336000908152600260209081526040909120855161045c928701906106a1565b5050505050565b600080600080610472856104e2565b6040805160008152602081018083528b905260ff8316918101919091526060810184905260808101839052929550909350915060019060a0016020604051602081039080840390855afa1580156104cd573d6000803e3d6000fd5b5050604051601f190151979650505050505050565b600080600083516041146105385760405162461bcd60e51b815260206004820152601860248201527f696e76616c6964207369676e6174757265206c656e677468000000000000000060448201526064016103b3565b50505060208101516040820151606090920151909260009190911a90565b6000828260405160200161056b929190610af0565b60405160208183030381529060405280519060200120905092915050565b6040517f19457468657265756d205369676e6564204d6573736167653a0a3332000000006020820152603c8101829052600090605c01604051602081830303815290604052805190602001209050919050565b6002602052600090815260409020805461029190610a99565b6001546000906001600160a01b0316331461060f57600080fd5b600061061c600143610b12565b4060001c90506040518060400160405280828152602001846001600160a01b03168152506003856040516106509190610ad4565b9081526040516020918190038201902082518155910151600190910180546001600160a01b03199081166001600160a01b039384161790915560048054909116949091169390931790925550919050565b8280546106ad90610a99565b90600052602060002090601f0160209004810192826106cf5760008555610715565b82601f106106e857805160ff1916838001178555610715565b82800160010185558215610715579182015b828111156107155782518255916020019190600101906106fa565b50610721929150610725565b5090565b5b808211156107215760008155600101610726565b80356001600160a01b038116811461075157600080fd5b919050565b634e487b7160e01b600052604160045260246000fd5b600082601f83011261077d57600080fd5b813567ffffffffffffffff8082111561079857610798610756565b604051601f8301601f19908116603f011681019082821181831017156107c0576107c0610756565b816040528381528660208588010111156107d957600080fd5b836020870160208301376000602085830101528094505050505092915050565b6000806000806080858703121561080f57600080fd5b6108188561073a565b9350602085013567ffffffffffffffff8082111561083557600080fd5b6108418883890161076c565b945060408701359350606087013591508082111561085e57600080fd5b5061086b8782880161076c565b91505092959194509250565b60005b8381101561089257818101518382015260200161087a565b838111156108a1576000848401525b50505050565b60208152600082518060208401526108c6816040850160208701610877565b601f01601f19169190910160400192915050565b6000602082840312156108ec57600080fd5b6108f58261073a565b9392505050565b60008060006060848603121561091157600080fd5b833567ffffffffffffffff8082111561092957600080fd5b6109358783880161076c565b945060208601359350604086013591508082111561095257600080fd5b5061095f8682870161076c565b9150509250925092565b6000806040838503121561097c57600080fd5b82359150602083013567ffffffffffffffff81111561099a57600080fd5b6109a68582860161076c565b9150509250929050565b6000602082840312156109c257600080fd5b813567ffffffffffffffff8111156109d957600080fd5b6109e58482850161076c565b949350505050565b60008060408385031215610a0057600080fd5b823567ffffffffffffffff811115610a1757600080fd5b610a238582860161076c565b95602094909401359450505050565b600060208284031215610a4457600080fd5b5035919050565b60008060408385031215610a5e57600080fd5b823567ffffffffffffffff811115610a7557600080fd5b610a818582860161076c565b925050610a906020840161073a565b90509250929050565b600181811c90821680610aad57607f821691505b60208210811415610ace57634e487b7160e01b600052602260045260246000fd5b50919050565b60008251610ae6818460208701610877565b9190910192915050565b60008351610b02818460208801610877565b9190910191825250602001919050565b600082821015610b3257634e487b7160e01b600052601160045260246000fd5b50039056fea2646970667358221220e61ac8b4f041773ffe4f2f89acc06ad8321433424777c70cefd6890a0b9fc9f864736f6c634300080a0033",
  "bytecodeSha1": "130b8f7909beaecb1d2b63363a38f5c3424b8cae",
  "compiler": {
    "evm_version": "istanbul",
    "optimizer": {
      "enabled": true,
      "runs": 200
    },
    "version": "0.8.10+commit.fc410830"
  },
  "contractName": "PhysicalAddressValidation",
  "language": "Solidity",
  "natspec": {
    "kind": "dev",
    "methods": {},
    "version": 1
  },
  "opcodes": "PUSH1 0x80 PUSH1 0x40 MSTORE CALLVALUE DUP1 ISZERO PUSH2 0x10 JUMPI PUSH1 0x0 DUP1 REVERT JUMPDEST POP PUSH1 0x4 CALLDATASIZE LT PUSH2 0xB4 JUMPI PUSH1 0x0 CALLDATALOAD PUSH1 0xE0 SHR DUP1 PUSH4 0xC618745C GT PUSH2 0x71 JUMPI DUP1 PUSH4 0xC618745C EQ PUSH2 0x17A JUMPI DUP1 PUSH4 0xD4AA6916 EQ PUSH2 0x1D2 JUMPI DUP1 PUSH4 0xFA540801 EQ PUSH2 0x1F3 JUMPI DUP1 PUSH4 0xFCF814C3 EQ PUSH2 0x206 JUMPI DUP1 PUSH4 0xFDECE178 EQ PUSH2 0x219 JUMPI DUP1 PUSH4 0xFF81F4B1 EQ PUSH2 0x22C JUMPI PUSH1 0x0 DUP1 REVERT JUMPDEST DUP1 PUSH4 0x7546F1A EQ PUSH2 0xB9 JUMPI DUP1 PUSH4 0x3A522E80 EQ PUSH2 0xE1 JUMPI DUP1 PUSH4 0x68ACA335 EQ PUSH2 0xF6 JUMPI DUP1 PUSH4 0x7FF91514 EQ PUSH2 0x109 JUMPI DUP1 PUSH4 0x97ABA7F9 EQ PUSH2 0x11E JUMPI DUP1 PUSH4 0xA7BB5803 EQ PUSH2 0x149 JUMPI JUMPDEST PUSH1 0x0 DUP1 REVERT JUMPDEST PUSH2 0xCC PUSH2 0xC7 CALLDATASIZE PUSH1 0x4 PUSH2 0x7F9 JUMP JUMPDEST PUSH2 0x23F JUMP JUMPDEST PUSH1 0x40 MLOAD SWAP1 ISZERO ISZERO DUP2 MSTORE PUSH1 0x20 ADD JUMPDEST PUSH1 0x40 MLOAD DUP1 SWAP2 SUB SWAP1 RETURN JUMPDEST PUSH2 0xE9 PUSH2 0x284 JUMP JUMPDEST PUSH1 0x40 MLOAD PUSH2 0xD8 SWAP2 SWAP1 PUSH2 0x8A7 JUMP JUMPDEST PUSH2 0xCC PUSH2 0x104 CALLDATASIZE PUSH1 0x4 PUSH2 0x8DA JUMP JUMPDEST PUSH2 0x312 JUMP JUMPDEST PUSH2 0x11C PUSH2 0x117 CALLDATASIZE PUSH1 0x4 PUSH2 0x8FC JUMP JUMPDEST PUSH2 0x342 JUMP JUMPDEST STOP JUMPDEST PUSH2 0x131 PUSH2 0x12C CALLDATASIZE PUSH1 0x4 PUSH2 0x969 JUMP JUMPDEST PUSH2 0x463 JUMP JUMPDEST PUSH1 0x40 MLOAD PUSH1 0x1 PUSH1 0x1 PUSH1 0xA0 SHL SUB SWAP1 SWAP2 AND DUP2 MSTORE PUSH1 0x20 ADD PUSH2 0xD8 JUMP JUMPDEST PUSH2 0x15C PUSH2 0x157 CALLDATASIZE PUSH1 0x4 PUSH2 0x9B0 JUMP JUMPDEST PUSH2 0x4E2 JUMP JUMPDEST PUSH1 0x40 DUP1 MLOAD SWAP4 DUP5 MSTORE PUSH1 0x20 DUP5 ADD SWAP3 SWAP1 SWAP3 MSTORE PUSH1 0xFF AND SWAP1 DUP3 ADD MSTORE PUSH1 0x60 ADD PUSH2 0xD8 JUMP JUMPDEST PUSH2 0x1B5 PUSH2 0x188 CALLDATASIZE PUSH1 0x4 PUSH2 0x9B0 JUMP JUMPDEST DUP1 MLOAD PUSH1 0x20 DUP2 DUP4 ADD DUP2 ADD DUP1 MLOAD PUSH1 0x3 DUP3 MSTORE SWAP3 DUP3 ADD SWAP2 SWAP1 SWAP4 ADD KECCAK256 SWAP2 MSTORE DUP1 SLOAD PUSH1 0x1 SWAP1 SWAP2 ADD SLOAD PUSH1 0x1 PUSH1 0x1 PUSH1 0xA0 SHL SUB AND DUP3 JUMP JUMPDEST PUSH1 0x40 DUP1 MLOAD SWAP3 DUP4 MSTORE PUSH1 0x1 PUSH1 0x1 PUSH1 0xA0 SHL SUB SWAP1 SWAP2 AND PUSH1 0x20 DUP4 ADD MSTORE ADD PUSH2 0xD8 JUMP JUMPDEST PUSH2 0x1E5 PUSH2 0x1E0 CALLDATASIZE PUSH1 0x4 PUSH2 0x9ED JUMP JUMPDEST PUSH2 0x556 JUMP JUMPDEST PUSH1 0x40 MLOAD SWAP1 DUP2 MSTORE PUSH1 0x20 ADD PUSH2 0xD8 JUMP JUMPDEST PUSH2 0x1E5 PUSH2 0x201 CALLDATASIZE PUSH1 0x4 PUSH2 0xA32 JUMP JUMPDEST PUSH2 0x589 JUMP JUMPDEST PUSH1 0x4 SLOAD PUSH2 0x131 SWAP1 PUSH1 0x1 PUSH1 0x1 PUSH1 0xA0 SHL SUB AND DUP2 JUMP JUMPDEST PUSH2 0xE9 PUSH2 0x227 CALLDATASIZE PUSH1 0x4 PUSH2 0x8DA JUMP JUMPDEST PUSH2 0x5DC JUMP JUMPDEST PUSH2 0x1E5 PUSH2 0x23A CALLDATASIZE PUSH1 0x4 PUSH2 0xA4B JUMP JUMPDEST PUSH2 0x5F5 JUMP JUMPDEST PUSH1 0x0 DUP1 PUSH2 0x24C DUP6 DUP6 PUSH2 0x556 JUMP JUMPDEST SWAP1 POP PUSH1 0x0 PUSH2 0x259 DUP3 PUSH2 0x589 JUMP JUMPDEST SWAP1 POP DUP7 PUSH1 0x1 PUSH1 0x1 PUSH1 0xA0 SHL SUB AND PUSH2 0x26F DUP3 DUP7 PUSH2 0x463 JUMP JUMPDEST PUSH1 0x1 PUSH1 0x1 PUSH1 0xA0 SHL SUB AND EQ SWAP8 SWAP7 POP POP POP POP POP POP POP JUMP JUMPDEST PUSH1 0x0 DUP1 SLOAD PUSH2 0x291 SWAP1 PUSH2 0xA99 JUMP JUMPDEST DUP1 PUSH1 0x1F ADD PUSH1 0x20 DUP1 SWAP2 DIV MUL PUSH1 0x20 ADD PUSH1 0x40 MLOAD SWAP1 DUP2 ADD PUSH1 0x40 MSTORE DUP1 SWAP3 SWAP2 SWAP1 DUP2 DUP2 MSTORE PUSH1 0x20 ADD DUP3 DUP1 SLOAD PUSH2 0x2BD SWAP1 PUSH2 0xA99 JUMP JUMPDEST DUP1 ISZERO PUSH2 0x30A JUMPI DUP1 PUSH1 0x1F LT PUSH2 0x2DF JUMPI PUSH2 0x100 DUP1 DUP4 SLOAD DIV MUL DUP4 MSTORE SWAP2 PUSH1 0x20 ADD SWAP2 PUSH2 0x30A JUMP JUMPDEST DUP3 ADD SWAP2 SWAP1 PUSH1 0x0 MSTORE PUSH1 0x20 PUSH1 0x0 KECCAK256 SWAP1 JUMPDEST DUP2 SLOAD DUP2 MSTORE SWAP1 PUSH1 0x1 ADD SWAP1 PUSH1 0x20 ADD DUP1 DUP4 GT PUSH2 0x2ED JUMPI DUP3 SWAP1 SUB PUSH1 0x1F AND DUP3 ADD SWAP2 JUMPDEST POP POP POP POP POP DUP2 JUMP JUMPDEST PUSH1 0x1 PUSH1 0x1 PUSH1 0xA0 SHL SUB DUP2 AND PUSH1 0x0 SWAP1 DUP2 MSTORE PUSH1 0x2 PUSH1 0x20 MSTORE PUSH1 0x40 DUP2 KECCAK256 DUP1 SLOAD DUP3 SWAP2 SWAP1 PUSH2 0x338 SWAP1 PUSH2 0xA99 JUMP JUMPDEST SWAP1 POP GT SWAP1 POP SWAP2 SWAP1 POP JUMP JUMPDEST PUSH1 0x0 PUSH1 0x3 DUP5 PUSH1 0x40 MLOAD PUSH2 0x354 SWAP2 SWAP1 PUSH2 0xAD4 JUMP JUMPDEST SWAP1 DUP2 MSTORE PUSH1 0x20 ADD PUSH1 0x40 MLOAD DUP1 SWAP2 SUB SWAP1 KECCAK256 SWAP1 POP DUP1 PUSH1 0x0 ADD SLOAD DUP4 EQ PUSH2 0x3BC JUMPI PUSH1 0x40 MLOAD PUSH3 0x461BCD PUSH1 0xE5 SHL DUP2 MSTORE PUSH1 0x20 PUSH1 0x4 DUP3 ADD MSTORE PUSH1 0x1D PUSH1 0x24 DUP3 ADD MSTORE PUSH32 0x4E6F6E636520737570706C69656420646F65736E2774206D617463682E000000 PUSH1 0x44 DUP3 ADD MSTORE PUSH1 0x64 ADD JUMPDEST PUSH1 0x40 MLOAD DUP1 SWAP2 SUB SWAP1 REVERT JUMPDEST PUSH1 0x4 SLOAD PUSH1 0x1 PUSH1 0x1 PUSH1 0xA0 SHL SUB AND CALLER EQ PUSH2 0x42F JUMPI PUSH1 0x40 MLOAD PUSH3 0x461BCD PUSH1 0xE5 SHL DUP2 MSTORE PUSH1 0x20 PUSH1 0x4 DUP3 ADD MSTORE PUSH1 0x30 PUSH1 0x24 DUP3 ADD MSTORE PUSH32 0x53656E646572206E6F74206173736F6369617465642077697468207468652070 PUSH1 0x44 DUP3 ADD MSTORE PUSH16 0x343CB9B4B1B0B61030B2323932B9B997 PUSH1 0x81 SHL PUSH1 0x64 DUP3 ADD MSTORE PUSH1 0x84 ADD PUSH2 0x3B3 JUMP JUMPDEST PUSH2 0x43B CALLER DUP6 DUP6 DUP6 PUSH2 0x23F JUMP JUMPDEST POP CALLER PUSH1 0x0 SWAP1 DUP2 MSTORE PUSH1 0x2 PUSH1 0x20 SWAP1 DUP2 MSTORE PUSH1 0x40 SWAP1 SWAP2 KECCAK256 DUP6 MLOAD PUSH2 0x45C SWAP3 DUP8 ADD SWAP1 PUSH2 0x6A1 JUMP JUMPDEST POP POP POP POP POP JUMP JUMPDEST PUSH1 0x0 DUP1 PUSH1 0x0 DUP1 PUSH2 0x472 DUP6 PUSH2 0x4E2 JUMP JUMPDEST PUSH1 0x40 DUP1 MLOAD PUSH1 0x0 DUP2 MSTORE PUSH1 0x20 DUP2 ADD DUP1 DUP4 MSTORE DUP12 SWAP1 MSTORE PUSH1 0xFF DUP4 AND SWAP2 DUP2 ADD SWAP2 SWAP1 SWAP2 MSTORE PUSH1 0x60 DUP2 ADD DUP5 SWAP1 MSTORE PUSH1 0x80 DUP2 ADD DUP4 SWAP1 MSTORE SWAP3 SWAP6 POP SWAP1 SWAP4 POP SWAP2 POP PUSH1 0x1 SWAP1 PUSH1 0xA0 ADD PUSH1 0x20 PUSH1 0x40 MLOAD PUSH1 0x20 DUP2 SUB SWAP1 DUP1 DUP5 SUB SWAP1 DUP6 GAS STATICCALL ISZERO DUP1 ISZERO PUSH2 0x4CD JUMPI RETURNDATASIZE PUSH1 0x0 DUP1 RETURNDATACOPY RETURNDATASIZE PUSH1 0x0 REVERT JUMPDEST POP POP PUSH1 0x40 MLOAD PUSH1 0x1F NOT ADD MLOAD SWAP8 SWAP7 POP POP POP POP POP POP POP JUMP JUMPDEST PUSH1 0x0 DUP1 PUSH1 0x0 DUP4 MLOAD PUSH1 0x41 EQ PUSH2 0x538 JUMPI PUSH1 0x40 MLOAD PUSH3 0x461BCD PUSH1 0xE5 SHL DUP2 MSTORE PUSH1 0x20 PUSH1 0x4 DUP3 ADD MSTORE PUSH1 0x18 PUSH1 0x24 DUP3 ADD MSTORE PUSH32 0x696E76616C6964207369676E6174757265206C656E6774680000000000000000 PUSH1 0x44 DUP3 ADD MSTORE PUSH1 0x64 ADD PUSH2 0x3B3 JUMP JUMPDEST POP POP POP PUSH1 0x20 DUP2 ADD MLOAD PUSH1 0x40 DUP3 ADD MLOAD PUSH1 0x60 SWAP1 SWAP3 ADD MLOAD SWAP1 SWAP3 PUSH1 0x0 SWAP2 SWAP1 SWAP2 BYTE SWAP1 JUMP JUMPDEST PUSH1 0x0 DUP3 DUP3 PUSH1 0x40 MLOAD PUSH1 0x20 ADD PUSH2 0x56B SWAP3 SWAP2 SWAP1 PUSH2 0xAF0 JUMP JUMPDEST PUSH1 0x40 MLOAD PUSH1 0x20 DUP2 DUP4 SUB SUB DUP2 MSTORE SWAP1 PUSH1 0x40 MSTORE DUP1 MLOAD SWAP1 PUSH1 0x20 ADD KECCAK256 SWAP1 POP SWAP3 SWAP2 POP POP JUMP JUMPDEST PUSH1 0x40 MLOAD PUSH32 0x19457468657265756D205369676E6564204D6573736167653A0A333200000000 PUSH1 0x20 DUP3 ADD MSTORE PUSH1 0x3C DUP2 ADD DUP3 SWAP1 MSTORE PUSH1 0x0 SWAP1 PUSH1 0x5C ADD PUSH1 0x40 MLOAD PUSH1 0x20 DUP2 DUP4 SUB SUB DUP2 MSTORE SWAP1 PUSH1 0x40 MSTORE DUP1 MLOAD SWAP1 PUSH1 0x20 ADD KECCAK256 SWAP1 POP SWAP2 SWAP1 POP JUMP JUMPDEST PUSH1 0x2 PUSH1 0x20 MSTORE PUSH1 0x0 SWAP1 DUP2 MSTORE PUSH1 0x40 SWAP1 KECCAK256 DUP1 SLOAD PUSH2 0x291 SWAP1 PUSH2 0xA99 JUMP JUMPDEST PUSH1 0x1 SLOAD PUSH1 0x0 SWAP1 PUSH1 0x1 PUSH1 0x1 PUSH1 0xA0 SHL SUB AND CALLER EQ PUSH2 0x60F JUMPI PUSH1 0x0 DUP1 REVERT JUMPDEST PUSH1 0x0 PUSH2 0x61C PUSH1 0x1 NUMBER PUSH2 0xB12 JUMP JUMPDEST BLOCKHASH PUSH1 0x0 SHR SWAP1 POP PUSH1 0x40 MLOAD DUP1 PUSH1 0x40 ADD PUSH1 0x40 MSTORE DUP1 DUP3 DUP2 MSTORE PUSH1 0x20 ADD DUP5 PUSH1 0x1 PUSH1 0x1 PUSH1 0xA0 SHL SUB AND DUP2 MSTORE POP PUSH1 0x3 DUP6 PUSH1 0x40 MLOAD PUSH2 0x650 SWAP2 SWAP1 PUSH2 0xAD4 JUMP JUMPDEST SWAP1 DUP2 MSTORE PUSH1 0x40 MLOAD PUSH1 0x20 SWAP2 DUP2 SWAP1 SUB DUP3 ADD SWAP1 KECCAK256 DUP3 MLOAD DUP2 SSTORE SWAP2 ADD MLOAD PUSH1 0x1 SWAP1 SWAP2 ADD DUP1 SLOAD PUSH1 0x1 PUSH1 0x1 PUSH1 0xA0 SHL SUB NOT SWAP1 DUP2 AND PUSH1 0x1 PUSH1 0x1 PUSH1 0xA0 SHL SUB SWAP4 DUP5 AND OR SWAP1 SWAP2 SSTORE PUSH1 0x4 DUP1 SLOAD SWAP1 SWAP2 AND SWAP5 SWAP1 SWAP2 AND SWAP4 SWAP1 SWAP4 OR SWAP1 SWAP3 SSTORE POP SWAP2 SWAP1 POP JUMP JUMPDEST DUP3 DUP1 SLOAD PUSH2 0x6AD SWAP1 PUSH2 0xA99 JUMP JUMPDEST SWAP1 PUSH1 0x0 MSTORE PUSH1 0x20 PUSH1 0x0 KECCAK256 SWAP1 PUSH1 0x1F ADD PUSH1 0x20 SWAP1 DIV DUP2 ADD SWAP3 DUP3 PUSH2 0x6CF JUMPI PUSH1 0x0 DUP6 SSTORE PUSH2 0x715 JUMP JUMPDEST DUP3 PUSH1 0x1F LT PUSH2 0x6E8 JUMPI DUP1 MLOAD PUSH1 0xFF NOT AND DUP4 DUP1 ADD OR DUP6 SSTORE PUSH2 0x715 JUMP JUMPDEST DUP3 DUP1 ADD PUSH1 0x1 ADD DUP6 SSTORE DUP3 ISZERO PUSH2 0x715 JUMPI SWAP2 DUP3 ADD JUMPDEST DUP3 DUP2 GT ISZERO PUSH2 0x715 JUMPI DUP3 MLOAD DUP3 SSTORE SWAP2 PUSH1 0x20 ADD SWAP2 SWAP1 PUSH1 0x1 ADD SWAP1 PUSH2 0x6FA JUMP JUMPDEST POP PUSH2 0x721 SWAP3 SWAP2 POP PUSH2 0x725 JUMP JUMPDEST POP SWAP1 JUMP JUMPDEST JUMPDEST DUP1 DUP3 GT ISZERO PUSH2 0x721 JUMPI PUSH1 0x0 DUP2 SSTORE PUSH1 0x1 ADD PUSH2 0x726 JUMP JUMPDEST DUP1 CALLDATALOAD PUSH1 0x1 PUSH1 0x1 PUSH1 0xA0 SHL SUB DUP2 AND DUP2 EQ PUSH2 0x751 JUMPI PUSH1 0x0 DUP1 REVERT JUMPDEST SWAP2 SWAP1 POP JUMP JUMPDEST PUSH4 0x4E487B71 PUSH1 0xE0 SHL PUSH1 0x0 MSTORE PUSH1 0x41 PUSH1 0x4 MSTORE PUSH1 0x24 PUSH1 0x0 REVERT JUMPDEST PUSH1 0x0 DUP3 PUSH1 0x1F DUP4 ADD SLT PUSH2 0x77D JUMPI PUSH1 0x0 DUP1 REVERT JUMPDEST DUP2 CALLDATALOAD PUSH8 0xFFFFFFFFFFFFFFFF DUP1 DUP3 GT ISZERO PUSH2 0x798 JUMPI PUSH2 0x798 PUSH2 0x756 JUMP JUMPDEST PUSH1 0x40 MLOAD PUSH1 0x1F DUP4 ADD PUSH1 0x1F NOT SWAP1 DUP2 AND PUSH1 0x3F ADD AND DUP2 ADD SWAP1 DUP3 DUP3 GT DUP2 DUP4 LT OR ISZERO PUSH2 0x7C0 JUMPI PUSH2 0x7C0 PUSH2 0x756 JUMP JUMPDEST DUP2 PUSH1 0x40 MSTORE DUP4 DUP2 MSTORE DUP7 PUSH1 0x20 DUP6 DUP9 ADD ADD GT ISZERO PUSH2 0x7D9 JUMPI PUSH1 0x0 DUP1 REVERT JUMPDEST DUP4 PUSH1 0x20 DUP8 ADD PUSH1 0x20 DUP4 ADD CALLDATACOPY PUSH1 0x0 PUSH1 0x20 DUP6 DUP4 ADD ADD MSTORE DUP1 SWAP5 POP POP POP POP POP SWAP3 SWAP2 POP POP JUMP JUMPDEST PUSH1 0x0 DUP1 PUSH1 0x0 DUP1 PUSH1 0x80 DUP6 DUP8 SUB SLT ISZERO PUSH2 0x80F JUMPI PUSH1 0x0 DUP1 REVERT JUMPDEST PUSH2 0x818 DUP6 PUSH2 0x73A JUMP JUMPDEST SWAP4 POP PUSH1 0x20 DUP6 ADD CALLDATALOAD PUSH8 0xFFFFFFFFFFFFFFFF DUP1 DUP3 GT ISZERO PUSH2 0x835 JUMPI PUSH1 0x0 DUP1 REVERT JUMPDEST PUSH2 0x841 DUP9 DUP4 DUP10 ADD PUSH2 0x76C JUMP JUMPDEST SWAP5 POP PUSH1 0x40 DUP8 ADD CALLDATALOAD SWAP4 POP PUSH1 0x60 DUP8 ADD CALLDATALOAD SWAP2 POP DUP1 DUP3 GT ISZERO PUSH2 0x85E JUMPI PUSH1 0x0 DUP1 REVERT JUMPDEST POP PUSH2 0x86B DUP8 DUP3 DUP9 ADD PUSH2 0x76C JUMP JUMPDEST SWAP2 POP POP SWAP3 SWAP6 SWAP2 SWAP5 POP SWAP3 POP JUMP JUMPDEST PUSH1 0x0 JUMPDEST DUP4 DUP2 LT ISZERO PUSH2 0x892 JUMPI DUP2 DUP2 ADD MLOAD DUP4 DUP3 ADD MSTORE PUSH1 0x20 ADD PUSH2 0x87A JUMP JUMPDEST DUP4 DUP2 GT ISZERO PUSH2 0x8A1 JUMPI PUSH1 0x0 DUP5 DUP5 ADD MSTORE JUMPDEST POP POP POP POP JUMP JUMPDEST PUSH1 0x20 DUP2 MSTORE PUSH1 0x0 DUP3 MLOAD DUP1 PUSH1 0x20 DUP5 ADD MSTORE PUSH2 0x8C6 DUP2 PUSH1 0x40 DUP6 ADD PUSH1 0x20 DUP8 ADD PUSH2 0x877 JUMP JUMPDEST PUSH1 0x1F ADD PUSH1 0x1F NOT AND SWAP2 SWAP1 SWAP2 ADD PUSH1 0x40 ADD SWAP3 SWAP2 POP POP JUMP JUMPDEST PUSH1 0x0 PUSH1 0x20 DUP3 DUP5 SUB SLT ISZERO PUSH2 0x8EC JUMPI PUSH1 0x0 DUP1 REVERT JUMPDEST PUSH2 0x8F5 DUP3 PUSH2 0x73A JUMP JUMPDEST SWAP4 SWAP3 POP POP POP JUMP JUMPDEST PUSH1 0x0 DUP1 PUSH1 0x0 PUSH1 0x60 DUP5 DUP7 SUB SLT ISZERO PUSH2 0x911 JUMPI PUSH1 0x0 DUP1 REVERT JUMPDEST DUP4 CALLDATALOAD PUSH8 0xFFFFFFFFFFFFFFFF DUP1 DUP3 GT ISZERO PUSH2 0x929 JUMPI PUSH1 0x0 DUP1 REVERT JUMPDEST PUSH2 0x935 DUP8 DUP4 DUP9 ADD PUSH2 0x76C JUMP JUMPDEST SWAP5 POP PUSH1 0x20 DUP7 ADD CALLDATALOAD SWAP4 POP PUSH1 0x40 DUP7 ADD CALLDATALOAD SWAP2 POP DUP1 DUP3 GT ISZERO PUSH2 0x952 JUMPI PUSH1 0x0 DUP1 REVERT JUMPDEST POP PUSH2 0x95F DUP7 DUP3 DUP8 ADD PUSH2 0x76C JUMP JUMPDEST SWAP2 POP POP SWAP3 POP SWAP3 POP SWAP3 JUMP JUMPDEST PUSH1 0x0 DUP1 PUSH1 0x40 DUP4 DUP6 SUB SLT ISZERO PUSH2 0x97C JUMPI PUSH1 0x0 DUP1 REVERT JUMPDEST DUP3 CALLDATALOAD SWAP2 POP PUSH1 0x20 DUP4 ADD CALLDATALOAD PUSH8 0xFFFFFFFFFFFFFFFF DUP2 GT ISZERO PUSH2 0x99A JUMPI PUSH1 0x0 DUP1 REVERT JUMPDEST PUSH2 0x9A6 DUP6 DUP3 DUP7 ADD PUSH2 0x76C JUMP JUMPDEST SWAP2 POP POP SWAP3 POP SWAP3 SWAP1 POP JUMP JUMPDEST PUSH1 0x0 PUSH1 0x20 DUP3 DUP5 SUB SLT ISZERO PUSH2 0x9C2 JUMPI PUSH1 0x0 DUP1 REVERT JUMPDEST DUP2 CALLDATALOAD PUSH8 0xFFFFFFFFFFFFFFFF DUP2 GT ISZERO PUSH2 0x9D9 JUMPI PUSH1 0x0 DUP1 REVERT JUMPDEST PUSH2 0x9E5 DUP5 DUP3 DUP6 ADD PUSH2 0x76C JUMP JUMPDEST SWAP5 SWAP4 POP POP POP POP JUMP JUMPDEST PUSH1 0x0 DUP1 PUSH1 0x40 DUP4 DUP6 SUB SLT ISZERO PUSH2 0xA00 JUMPI PUSH1 0x0 DUP1 REVERT JUMPDEST DUP3 CALLDATALOAD PUSH8 0xFFFFFFFFFFFFFFFF DUP2 GT ISZERO PUSH2 0xA17 JUMPI PUSH1 0x0 DUP1 REVERT JUMPDEST PUSH2 0xA23 DUP6 DUP3 DUP7 ADD PUSH2 0x76C JUMP JUMPDEST SWAP6 PUSH1 0x20 SWAP5 SWAP1 SWAP5 ADD CALLDATALOAD SWAP5 POP POP POP POP JUMP JUMPDEST PUSH1 0x0 PUSH1 0x20 DUP3 DUP5 SUB SLT ISZERO PUSH2 0xA44 JUMPI PUSH1 0x0 DUP1 REVERT JUMPDEST POP CALLDATALOAD SWAP2 SWAP1 POP JUMP JUMPDEST PUSH1 0x0 DUP1 PUSH1 0x40 DUP4 DUP6 SUB SLT ISZERO PUSH2 0xA5E JUMPI PUSH1 0x0 DUP1 REVERT JUMPDEST DUP3 CALLDATALOAD PUSH8 0xFFFFFFFFFFFFFFFF DUP2 GT ISZERO PUSH2 0xA75 JUMPI PUSH1 0x0 DUP1 REVERT JUMPDEST PUSH2 0xA81 DUP6 DUP3 DUP7 ADD PUSH2 0x76C JUMP JUMPDEST SWAP3 POP POP PUSH2 0xA90 PUSH1 0x20 DUP5 ADD PUSH2 0x73A JUMP JUMPDEST SWAP1 POP SWAP3 POP SWAP3 SWAP1 POP JUMP JUMPDEST PUSH1 0x1 DUP2 DUP2 SHR SWAP1 DUP3 AND DUP1 PUSH2 0xAAD JUMPI PUSH1 0x7F DUP3 AND SWAP2 POP JUMPDEST PUSH1 0x20 DUP3 LT DUP2 EQ ISZERO PUSH2 0xACE JUMPI PUSH4 0x4E487B71 PUSH1 0xE0 SHL PUSH1 0x0 MSTORE PUSH1 0x22 PUSH1 0x4 MSTORE PUSH1 0x24 PUSH1 0x0 REVERT JUMPDEST POP SWAP2 SWAP1 POP JUMP JUMPDEST PUSH1 0x0 DUP3 MLOAD PUSH2 0xAE6 DUP2 DUP5 PUSH1 0x20 DUP8 ADD PUSH2 0x877 JUMP JUMPDEST SWAP2 SWAP1 SWAP2 ADD SWAP3 SWAP2 POP POP JUMP JUMPDEST PUSH1 0x0 DUP4 MLOAD PUSH2 0xB02 DUP2 DUP5 PUSH1 0x20 DUP9 ADD PUSH2 0x877 JUMP JUMPDEST SWAP2 SWAP1 SWAP2 ADD SWAP2 DUP3 MSTORE POP PUSH1 0x20 ADD SWAP2 SWAP1 POP JUMP JUMPDEST PUSH1 0x0 DUP3 DUP3 LT ISZERO PUSH2 0xB32 JUMPI PUSH4 0x4E487B71 PUSH1 0xE0 SHL PUSH1 0x0 MSTORE PUSH1 0x11 PUSH1 0x4 MSTORE PUSH1 0x24 PUSH1 0x0 REVERT JUMPDEST POP SUB SWAP1 JUMP INVALID LOG2 PUSH5 0x6970667358 0x22 SLT KECCAK256 0xE6 BYTE 0xC8 0xB4 CREATE COINBASE PUSH24 0x3FFE4F2F89ACC06AD8321433424777C70CEFD6890A0B9FC9 0xF8 PUSH5 0x736F6C6343 STOP ADDMOD EXP STOP CALLER ",
  "sha1": "124dc4f0f35f0737f16c71b4285c137319004967",
  "source": "// SPDX-License-Identifier: MIT\n\npragma solidity ^0.8.0;\n\ncontract PhysicalAddressValidation {\n    string public neighborhood;\n    address owner;\n\n    struct tokenInfo {\n        uint256 nonce;\n        address ethAddress;\n    }\n\n    modifier _ownerOnly() {\n        require(msg.sender == owner);\n        _;\n    }\n\n    // String for now, but maybe USPS has an abstract unique ID for address. In which case we should use that\n    mapping(address => string) public onChainToPhysicalAddresses;\n\n    //  hashed physical address => tokenInfo struct instance (nonce + end-user eth address)\n    mapping(string => tokenInfo) public oneTimeUseTokens;\n\n    address public myaddress;\n\n    constructor(string memory _neighborhood) {\n        neighborhood = _neighborhood;\n        owner = msg.sender;\n    }\n\n    function getMessageHash(\n        string memory physicalAddressHash,\n        uint256 notsecurenonce\n    ) public pure returns (bytes32) {\n        return keccak256(abi.encodePacked(physicalAddressHash, notsecurenonce));\n    }\n\n    function getNonceForAddress(\n        string memory physicalAddressHash,\n        address ethAddress\n    ) public _ownerOnly returns (uint256) {\n        // for prod apps you want to use a verifiable randomness oracle rather than use previous block number\n        uint256 notsecurenonce = uint256(blockhash(block.number - 1));\n        // currently it just overrides the old address hash for the user\n        // so only one user at the address can generate a nonce\n        oneTimeUseTokens[physicalAddressHash] = tokenInfo(\n            notsecurenonce,\n            ethAddress\n        );\n        myaddress = ethAddress;\n        return notsecurenonce;\n    }\n\n    // copied from here https://solidity-by-example.org/signature/\n    function getEthSignedMessageHash(bytes32 _messageHash)\n        public\n        pure\n        returns (bytes32)\n    {\n        /*\n        Signature is produced by signing a keccak256 hash with the following format:\n        \"\\x19Ethereum Signed Message\\n\" + len(msg) + msg\n        */\n        return\n            keccak256(\n                abi.encodePacked(\n                    \"\\x19Ethereum Signed Message:\\n32\",\n                    _messageHash\n                )\n            );\n    }\n\n    function splitSignature(bytes memory sig)\n        public\n        pure\n        returns (\n            bytes32 r,\n            bytes32 s,\n            uint8 v\n        )\n    {\n        require(sig.length == 65, \"invalid signature length\");\n\n        assembly {\n            /*\n            First 32 bytes stores the length of the signature\n\n            add(sig, 32) = pointer of sig + 32\n            effectively, skips first 32 bytes of signature\n\n            mload(p) loads next 32 bytes starting at the memory address p into memory\n            */\n\n            // first 32 bytes, after the length prefix\n            r := mload(add(sig, 32))\n            // second 32 bytes\n            s := mload(add(sig, 64))\n            // final byte (first byte of the next 32 bytes)\n            v := byte(0, mload(add(sig, 96)))\n        }\n\n        // implicitly return (r, s, v)\n    }\n\n    function recoverSigner(\n        bytes32 _ethSignedMessageHash,\n        bytes memory _signature\n    ) public pure returns (address) {\n        (bytes32 r, bytes32 s, uint8 v) = splitSignature(_signature);\n\n        return ecrecover(_ethSignedMessageHash, v, r, s);\n    }\n\n    function verify(\n        address _signer,\n        string memory physicalAddressHash,\n        uint256 notsecurenonce,\n        bytes memory signature\n    ) public pure returns (bool) {\n        bytes32 messageHash = getMessageHash(\n            physicalAddressHash,\n            notsecurenonce\n        );\n        bytes32 ethSignedMessageHash = getEthSignedMessageHash(messageHash);\n\n        return recoverSigner(ethSignedMessageHash, signature) == _signer;\n    }\n\n    function isResident(address ethAddress) public view returns (bool) {\n        return  bytes(onChainToPhysicalAddresses[ethAddress]).length > 0 ;\n    }\n\n    function registerAddress(\n        string memory physicalAddressHash,\n        uint256 notsecurenonce,\n        bytes memory proofOfAddressSignature\n    ) public {\n        // bytes memory proofOfAddressSignature //signature of the hash of the jws\n        // ensure that the token has not already been used, and that it matches up with the physical address provided as an arg to this function\n        // TODO: lookup the ETH address from the physical address hash\n        // TODO: verify the proof of address is signed by the eth address\n        tokenInfo storage _tokInfo = oneTimeUseTokens[physicalAddressHash];\n        require(\n            notsecurenonce == _tokInfo.nonce,\n            \"Nonce supplied doesn't match.\"\n        );\n        require(\n            msg.sender == myaddress,\n            \"Sender not associated with the physical address.\"\n        );\n        // if verify succeeded, store the sender address on chain\n        if (\n            verify(\n                msg.sender,\n                physicalAddressHash,\n                notsecurenonce,\n                proofOfAddressSignature\n            ) == true\n        ) {\n        }\n        onChainToPhysicalAddresses[msg.sender] = physicalAddressHash;\n    }\n    // external function to add one-time use token, BUT make sure that to validate it can only be called by the contract creator.\n}\n",
  "sourcePath": "contracts/PhysicalAddressValidation.sol",
  "type": "contract"
}